{
  "_format": "hh-sol-artifact-1",
  "contractName": "ReniPay",
  "sourceName": "contracts/ReniPay.sol",
  "abi": [
    {
      "anonymous": false,
      "inputs": [
        {
          "indexed": true,
          "internalType": "address",
          "name": "previousOwner",
          "type": "address"
        },
        {
          "indexed": true,
          "internalType": "address",
          "name": "newOwner",
          "type": "address"
        }
      ],
      "name": "OwnershipTransferred",
      "type": "event"
    },
    {
      "anonymous": false,
      "inputs": [
        {
          "indexed": false,
          "internalType": "uint256",
          "name": "amount",
          "type": "uint256"
        },
        {
          "indexed": false,
          "internalType": "address",
          "name": "payer",
          "type": "address"
        },
        {
          "indexed": false,
          "internalType": "string",
          "name": "merchant",
          "type": "string"
        },
        {
          "indexed": false,
          "internalType": "string",
          "name": "transactionId",
          "type": "string"
        }
      ],
      "name": "paymentSuccessful",
      "type": "event"
    },
    {
      "anonymous": false,
      "inputs": [
        {
          "indexed": false,
          "internalType": "address",
          "name": "proviousRouter",
          "type": "address"
        },
        {
          "indexed": false,
          "internalType": "address",
          "name": "newRouter",
          "type": "address"
        }
      ],
      "name": "routerUpdated",
      "type": "event"
    },
    {
      "anonymous": false,
      "inputs": [
        {
          "indexed": false,
          "internalType": "uint256",
          "name": "previousSlippage",
          "type": "uint256"
        },
        {
          "indexed": false,
          "internalType": "uint256",
          "name": "newSlippage",
          "type": "uint256"
        }
      ],
      "name": "slippageUpdated",
      "type": "event"
    },
    {
      "anonymous": false,
      "inputs": [
        {
          "indexed": false,
          "internalType": "address",
          "name": "proviousStableCoin",
          "type": "address"
        },
        {
          "indexed": false,
          "internalType": "address",
          "name": "newStableCoin",
          "type": "address"
        }
      ],
      "name": "stableCoinUpdated",
      "type": "event"
    },
    {
      "inputs": [
        {
          "internalType": "address",
          "name": "_token",
          "type": "address"
        },
        {
          "internalType": "uint256",
          "name": "_amountInUSD",
          "type": "uint256"
        },
        {
          "internalType": "string",
          "name": "_transactionId",
          "type": "string"
        },
        {
          "internalType": "string",
          "name": "_merchant",
          "type": "string"
        }
      ],
      "name": "makePayment",
      "outputs": [],
      "stateMutability": "payable",
      "type": "function"
    },
    {
      "inputs": [],
      "name": "owner",
      "outputs": [
        {
          "internalType": "address",
          "name": "",
          "type": "address"
        }
      ],
      "stateMutability": "view",
      "type": "function"
    },
    {
      "inputs": [],
      "name": "renounceOwnership",
      "outputs": [],
      "stateMutability": "nonpayable",
      "type": "function"
    },
    {
      "inputs": [
        {
          "internalType": "uint256",
          "name": "_amountInUSD",
          "type": "uint256"
        },
        {
          "internalType": "address",
          "name": "_token",
          "type": "address"
        }
      ],
      "name": "requiredTokenAmount",
      "outputs": [
        {
          "internalType": "uint256",
          "name": "_tokenAmount",
          "type": "uint256"
        }
      ],
      "stateMutability": "view",
      "type": "function"
    },
    {
      "inputs": [],
      "name": "slippage",
      "outputs": [
        {
          "internalType": "uint256",
          "name": "",
          "type": "uint256"
        }
      ],
      "stateMutability": "view",
      "type": "function"
    },
    {
      "inputs": [],
      "name": "stableCoin",
      "outputs": [
        {
          "internalType": "address",
          "name": "",
          "type": "address"
        }
      ],
      "stateMutability": "view",
      "type": "function"
    },
    {
      "inputs": [],
      "name": "swapRouter",
      "outputs": [
        {
          "internalType": "address",
          "name": "",
          "type": "address"
        }
      ],
      "stateMutability": "view",
      "type": "function"
    },
    {
      "inputs": [
        {
          "internalType": "address",
          "name": "newOwner",
          "type": "address"
        }
      ],
      "name": "transferOwnership",
      "outputs": [],
      "stateMutability": "nonpayable",
      "type": "function"
    },
    {
      "inputs": [
        {
          "internalType": "address",
          "name": "_router",
          "type": "address"
        }
      ],
      "name": "updateRouter",
      "outputs": [],
      "stateMutability": "nonpayable",
      "type": "function"
    },
    {
      "inputs": [
        {
          "internalType": "uint256",
          "name": "_slippage",
          "type": "uint256"
        }
      ],
      "name": "updateSlippage",
      "outputs": [],
      "stateMutability": "nonpayable",
      "type": "function"
    },
    {
      "inputs": [
        {
          "internalType": "address",
          "name": "_stableCoin",
          "type": "address"
        }
      ],
      "name": "updateStableCoin",
      "outputs": [],
      "stateMutability": "nonpayable",
      "type": "function"
    }
  ],
  "bytecode": "0x6080604052600280546001600160a01b0319908116731b02da8cb0d097eb8d57a175b88c7d8b47997506179091556003805490911673a5e9bad00a0b8291b02dec6286f1db1c35a9903a17905534801561005857600080fd5b5061006233610067565b6100b7565b600080546001600160a01b038381166001600160a01b0319831681178455604051919092169283917f8be0079c531659141344cd1fd0a4f28419497f9722a3daafe3b4186f6b6457e09190a35050565b611088806100c66000396000f3fe60806040526004361061009c5760003560e01c80638da5cb5b116100645780638da5cb5b14610134578063992642e514610166578063c31c9c0714610186578063c851cc32146101a6578063e0baeb29146101c6578063f2fde38b146101e657600080fd5b806315b0d496146100a15780633e032a3b146100c35780636a83213c146100ec578063715018a6146100ff57806374bf47ed14610114575b600080fd5b3480156100ad57600080fd5b506100c16100bc366004610d9b565b610206565b005b3480156100cf57600080fd5b506100d960015481565b6040519081526020015b60405180910390f35b6100c16100fa366004610c4c565b610254565b34801561010b57600080fd5b506100c16104f2565b34801561012057600080fd5b506100d961012f366004610db4565b610506565b34801561014057600080fd5b506000546001600160a01b03165b6040516001600160a01b0390911681526020016100e3565b34801561017257600080fd5b5060035461014e906001600160a01b031681565b34801561019257600080fd5b5060025461014e906001600160a01b031681565b3480156101b257600080fd5b506100c16101c1366004610c0b565b61066d565b3480156101d257600080fd5b506100c16101e1366004610c0b565b6106cf565b3480156101f257600080fd5b506100c1610201366004610c0b565b610731565b61020e6107aa565b600180549082905560408051828152602081018490527f65a432a61255064db30a15a13e88e8108f3fd5a3dcf38b0663a2c47c974011de91015b60405180910390a15050565b6040805160028082526060808301845292602083019080368337019050509050848160008151811061028857610288611011565b6001600160a01b0392831660209182029290920101526003548251911690829060019081106102b9576102b9611011565b6001600160a01b0392831660209182029290920101526003546000918781169116148015906102f057506001600160a01b03861615155b1561031e576102ff8587610506565b905061030d86333084610804565b610318818684610942565b506104ad565b6003546001600160a01b03878116911614156103455761034086333088610804565b6104ad565b6103cf85600260009054906101000a90046001600160a01b03166001600160a01b031663ad5c46486040518163ffffffff1660e01b815260040160206040518083038186803b15801561039757600080fd5b505afa1580156103ab573d6000803e3d6000fd5b505050506040513d601f19601f8201168201806040525081019061012f9190610c2f565b90508034101561041d5760405162461bcd60e51b8152602060048201526014602482015273496e73756666696369656e7420616d6f756e742160601b60448201526064015b60405180910390fd5b60025460405163fb3bdb4160e01b81526001600160a01b039091169063fb3bdb41908390610455908990879030904290600401610ed0565b6000604051808303818588803b15801561046e57600080fd5b505af1158015610482573d6000803e3d6000fd5b50505050506040513d6000823e601f3d908101601f191682016040526104ab9190810190610ccc565b505b7f15ad4636d0d87bc4a09c09a87a839eb09120dc5133c9d8bfed59a196c7d05603853385876040516104e29493929190610e70565b60405180910390a1505050505050565b6104fa6107aa565b6105046000610a1c565b565b6040805160028082526060808301845260009390929190602083019080368337019050509050828160008151811061054057610540611011565b6001600160a01b03928316602091820292909201015260035482519116908290600190811061057157610571611011565b6001600160a01b0392831660209182029290920101526002546040516307c0329d60e21b81526000929190911690631f00ca74906105b59088908690600401610eb7565b60006040518083038186803b1580156105cd57600080fd5b505afa1580156105e1573d6000803e3d6000fd5b505050506040513d6000823e601f3d908101601f191682016040526106099190810190610ccc565b905060646001548260008151811061062357610623611011565b60200260200101516106359190610fac565b61063f9190610f8a565b8160008151811061065257610652611011565b60200260200101516106649190610f72565b95945050505050565b6106756107aa565b600280546001600160a01b038381166001600160a01b031983168117909355604080519190921680825260208201939093527fc39066a0834df96b3282322903ba6662d4c35a464fbfb1cb2f5aa97226a97db49101610248565b6106d76107aa565b600380546001600160a01b038381166001600160a01b031983168117909355604080519190921680825260208201939093527fbbc43c225c49cd825b755826abb6ef4940c342bc15f8d7fd9d0fb4e2b363ba539101610248565b6107396107aa565b6001600160a01b03811661079e5760405162461bcd60e51b815260206004820152602660248201527f4f776e61626c653a206e6577206f776e657220697320746865207a65726f206160448201526564647265737360d01b6064820152608401610414565b6107a781610a1c565b50565b6000546001600160a01b031633146105045760405162461bcd60e51b815260206004820181905260248201527f4f776e61626c653a2063616c6c6572206973206e6f7420746865206f776e65726044820152606401610414565b604080516001600160a01b0385811660248301528481166044830152606480830185905283518084039091018152608490920183526020820180516001600160e01b03166323b872dd60e01b17905291516000928392908816916108689190610e54565b6000604051808303816000865af19150503d80600081146108a5576040519150601f19603f3d011682016040523d82523d6000602084013e6108aa565b606091505b50915091508180156108d45750805115806108d45750808060200190518101906108d49190610d79565b61093a5760405162461bcd60e51b815260206004820152603160248201527f5472616e7366657248656c7065723a3a7472616e7366657246726f6d3a207472604482015270185b9cd9995c919c9bdb4819985a5b1959607a1b6064820152608401610414565b505050505050565b60606109778260008151811061095a5761095a611011565b60209081029190910101516002546001600160a01b031686610a6c565b6002546001600160a01b0316638803dbee84868561099d6000546001600160a01b031690565b426040518663ffffffff1660e01b81526004016109be959493929190610f05565b600060405180830381600087803b1580156109d857600080fd5b505af11580156109ec573d6000803e3d6000fd5b505050506040513d6000823e601f3d908101601f19168201604052610a149190810190610ccc565b949350505050565b600080546001600160a01b038381166001600160a01b0319831681178455604051919092169283917f8be0079c531659141344cd1fd0a4f28419497f9722a3daafe3b4186f6b6457e09190a35050565b604080516001600160a01b038481166024830152604480830185905283518084039091018152606490920183526020820180516001600160e01b031663095ea7b360e01b1790529151600092839290871691610ac89190610e54565b6000604051808303816000865af19150503d8060008114610b05576040519150601f19603f3d011682016040523d82523d6000602084013e610b0a565b606091505b5091509150818015610b34575080511580610b34575080806020019051810190610b349190610d79565b610b945760405162461bcd60e51b815260206004820152602b60248201527f5472616e7366657248656c7065723a3a73616665417070726f76653a2061707060448201526a1c9bdd994819985a5b195960aa1b6064820152608401610414565b5050505050565b600082601f830112610bac57600080fd5b813567ffffffffffffffff811115610bc657610bc6611027565b610bd9601f8201601f1916602001610f41565b818152846020838601011115610bee57600080fd5b816020850160208301376000918101602001919091529392505050565b600060208284031215610c1d57600080fd5b8135610c288161103d565b9392505050565b600060208284031215610c4157600080fd5b8151610c288161103d565b60008060008060808587031215610c6257600080fd5b8435610c6d8161103d565b935060208501359250604085013567ffffffffffffffff80821115610c9157600080fd5b610c9d88838901610b9b565b93506060870135915080821115610cb357600080fd5b50610cc087828801610b9b565b91505092959194509250565b60006020808385031215610cdf57600080fd5b825167ffffffffffffffff80821115610cf757600080fd5b818501915085601f830112610d0b57600080fd5b815181811115610d1d57610d1d611027565b8060051b9150610d2e848301610f41565b8181528481019084860184860187018a1015610d4957600080fd5b600095505b83861015610d6c578051835260019590950194918601918601610d4e565b5098975050505050505050565b600060208284031215610d8b57600080fd5b81518015158114610c2857600080fd5b600060208284031215610dad57600080fd5b5035919050565b60008060408385031215610dc757600080fd5b823591506020830135610dd98161103d565b809150509250929050565b600081518084526020808501945080840160005b83811015610e1d5781516001600160a01b031687529582019590820190600101610df8565b509495945050505050565b60008151808452610e40816020860160208601610fcb565b601f01601f19169290920160200192915050565b60008251610e66818460208701610fcb565b9190910192915050565b8481526001600160a01b0384166020820152608060408201819052600090610e9a90830185610e28565b8281036060840152610eac8185610e28565b979650505050505050565b828152604060208201526000610a146040830184610de4565b848152608060208201526000610ee96080830186610de4565b6001600160a01b03949094166040830152506060015292915050565b85815284602082015260a060408201526000610f2460a0830186610de4565b6001600160a01b0394909416606083015250608001529392505050565b604051601f8201601f1916810167ffffffffffffffff81118282101715610f6a57610f6a611027565b604052919050565b60008219821115610f8557610f85610ffb565b500190565b600082610fa757634e487b7160e01b600052601260045260246000fd5b500490565b6000816000190483118215151615610fc657610fc6610ffb565b500290565b60005b83811015610fe6578181015183820152602001610fce565b83811115610ff5576000848401525b50505050565b634e487b7160e01b600052601160045260246000fd5b634e487b7160e01b600052603260045260246000fd5b634e487b7160e01b600052604160045260246000fd5b6001600160a01b03811681146107a757600080fdfea2646970667358221220dae3ec878623b664f650ea87d4d6e3b3ae3cb48ce498989687c35f8a18d662e864736f6c63430008060033",
  "linkReferences": {},
  "deployedLinkReferences": {}
}