{
  "_format": "hh-sol-artifact-1",
  "contractName": "ReniPay",
  "sourceName": "contracts/ReniPay.sol",
  "abi": [
    {
      "anonymous": false,
      "inputs": [
        {
          "indexed": true,
          "internalType": "address",
          "name": "previousOwner",
          "type": "address"
        },
        {
          "indexed": true,
          "internalType": "address",
          "name": "newOwner",
          "type": "address"
        }
      ],
      "name": "OwnershipTransferred",
      "type": "event"
    },
    {
      "anonymous": false,
      "inputs": [
        {
          "indexed": false,
          "internalType": "uint256",
          "name": "amount",
          "type": "uint256"
        },
        {
          "indexed": false,
          "internalType": "string",
          "name": "payer",
          "type": "string"
        },
        {
          "indexed": false,
          "internalType": "address",
          "name": "payer_address",
          "type": "address"
        },
        {
          "indexed": false,
          "internalType": "string",
          "name": "merchant",
          "type": "string"
        },
        {
          "indexed": false,
          "internalType": "string",
          "name": "description",
          "type": "string"
        }
      ],
      "name": "paymentSuccessful",
      "type": "event"
    },
    {
      "anonymous": false,
      "inputs": [
        {
          "indexed": false,
          "internalType": "address",
          "name": "proviousRouter",
          "type": "address"
        },
        {
          "indexed": false,
          "internalType": "address",
          "name": "newRouter",
          "type": "address"
        }
      ],
      "name": "routerUpdated",
      "type": "event"
    },
    {
      "anonymous": false,
      "inputs": [
        {
          "indexed": false,
          "internalType": "uint256",
          "name": "previousSlippage",
          "type": "uint256"
        },
        {
          "indexed": false,
          "internalType": "uint256",
          "name": "newSlippage",
          "type": "uint256"
        }
      ],
      "name": "slippageUpdated",
      "type": "event"
    },
    {
      "anonymous": false,
      "inputs": [
        {
          "indexed": false,
          "internalType": "address",
          "name": "proviousStableCoin",
          "type": "address"
        },
        {
          "indexed": false,
          "internalType": "address",
          "name": "newStableCoin",
          "type": "address"
        }
      ],
      "name": "stableCoinUpdated",
      "type": "event"
    },
    {
      "inputs": [
        {
          "internalType": "address",
          "name": "_token",
          "type": "address"
        },
        {
          "internalType": "uint256",
          "name": "_amountInUSD",
          "type": "uint256"
        },
        {
          "internalType": "string",
          "name": "_name",
          "type": "string"
        },
        {
          "internalType": "string",
          "name": "_description",
          "type": "string"
        },
        {
          "internalType": "string",
          "name": "_merchant",
          "type": "string"
        }
      ],
      "name": "makePayment",
      "outputs": [],
      "stateMutability": "payable",
      "type": "function"
    },
    {
      "inputs": [],
      "name": "owner",
      "outputs": [
        {
          "internalType": "address",
          "name": "",
          "type": "address"
        }
      ],
      "stateMutability": "view",
      "type": "function"
    },
    {
      "inputs": [],
      "name": "renounceOwnership",
      "outputs": [],
      "stateMutability": "nonpayable",
      "type": "function"
    },
    {
      "inputs": [
        {
          "internalType": "uint256",
          "name": "_amountInUSD",
          "type": "uint256"
        },
        {
          "internalType": "address",
          "name": "_token",
          "type": "address"
        }
      ],
      "name": "requiredTokenAmount",
      "outputs": [
        {
          "internalType": "uint256",
          "name": "_tokenAmount",
          "type": "uint256"
        }
      ],
      "stateMutability": "view",
      "type": "function"
    },
    {
      "inputs": [],
      "name": "slippage",
      "outputs": [
        {
          "internalType": "uint256",
          "name": "",
          "type": "uint256"
        }
      ],
      "stateMutability": "view",
      "type": "function"
    },
    {
      "inputs": [],
      "name": "stableCoin",
      "outputs": [
        {
          "internalType": "address",
          "name": "",
          "type": "address"
        }
      ],
      "stateMutability": "view",
      "type": "function"
    },
    {
      "inputs": [],
      "name": "swapRouter",
      "outputs": [
        {
          "internalType": "address",
          "name": "",
          "type": "address"
        }
      ],
      "stateMutability": "view",
      "type": "function"
    },
    {
      "inputs": [
        {
          "internalType": "address",
          "name": "newOwner",
          "type": "address"
        }
      ],
      "name": "transferOwnership",
      "outputs": [],
      "stateMutability": "nonpayable",
      "type": "function"
    },
    {
      "inputs": [
        {
          "internalType": "address",
          "name": "_router",
          "type": "address"
        }
      ],
      "name": "updateRouter",
      "outputs": [],
      "stateMutability": "nonpayable",
      "type": "function"
    },
    {
      "inputs": [
        {
          "internalType": "uint256",
          "name": "_slippage",
          "type": "uint256"
        }
      ],
      "name": "updateSlippage",
      "outputs": [],
      "stateMutability": "nonpayable",
      "type": "function"
    },
    {
      "inputs": [
        {
          "internalType": "address",
          "name": "_stableCoin",
          "type": "address"
        }
      ],
      "name": "updateStableCoin",
      "outputs": [],
      "stateMutability": "nonpayable",
      "type": "function"
    }
  ],
  "bytecode": "0x6080604052600280546001600160a01b0319908116731b02da8cb0d097eb8d57a175b88c7d8b47997506179091556003805490911673a5e9bad00a0b8291b02dec6286f1db1c35a9903a17905534801561005857600080fd5b5061006233610067565b6100b7565b600080546001600160a01b038381166001600160a01b0319831681178455604051919092169283917f8be0079c531659141344cd1fd0a4f28419497f9722a3daafe3b4186f6b6457e09190a35050565b6110c3806100c66000396000f3fe60806040526004361061009c5760003560e01c8063992642e511610064578063992642e5146101535780639cecf64b14610173578063c31c9c0714610186578063c851cc32146101a6578063e0baeb29146101c6578063f2fde38b146101e657600080fd5b806315b0d496146100a15780633e032a3b146100c3578063715018a6146100ec57806374bf47ed146101015780638da5cb5b14610121575b600080fd5b3480156100ad57600080fd5b506100c16100bc366004610dc3565b610206565b005b3480156100cf57600080fd5b506100d960015481565b6040519081526020015b60405180910390f35b3480156100f857600080fd5b506100c1610254565b34801561010d57600080fd5b506100d961011c366004610ddc565b610268565b34801561012d57600080fd5b506000546001600160a01b03165b6040516001600160a01b0390911681526020016100e3565b34801561015f57600080fd5b5060035461013b906001600160a01b031681565b6100c1610181366004610c4f565b6103cf565b34801561019257600080fd5b5060025461013b906001600160a01b031681565b3480156101b257600080fd5b506100c16101c1366004610c0e565b610670565b3480156101d257600080fd5b506100c16101e1366004610c0e565b6106d2565b3480156101f257600080fd5b506100c1610201366004610c0e565b610734565b61020e6107ad565b600180549082905560408051828152602081018490527f65a432a61255064db30a15a13e88e8108f3fd5a3dcf38b0663a2c47c974011de91015b60405180910390a15050565b61025c6107ad565b6102666000610807565b565b604080516002808252606080830184526000939092919060208301908036833701905050905082816000815181106102a2576102a261104c565b6001600160a01b0392831660209182029290920101526003548251911690829060019081106102d3576102d361104c565b6001600160a01b0392831660209182029290920101526002546040516307c0329d60e21b81526000929190911690631f00ca74906103179088908690600401610e98565b60006040518083038186803b15801561032f57600080fd5b505afa158015610343573d6000803e3d6000fd5b505050506040513d6000823e601f3d908101601f1916820160405261036b9190810190610cf4565b90506064600154826000815181106103855761038561104c565b60200260200101516103979190610fe7565b6103a19190610fc5565b816000815181106103b4576103b461104c565b60200260200101516103c69190610fad565b95945050505050565b604080516002808252606080830184529260208301908036833701905050905085816000815181106104035761040361104c565b6001600160a01b0392831660209182029290920101526003548251911690829060019081106104345761043461104c565b6001600160a01b03928316602091820292909201015260035460009188811691161480159061046b57506001600160a01b03871615155b156104995761047a8688610268565b905061048887333084610857565b610493818784610995565b50610628565b6003546001600160a01b03888116911614156104c0576104bb87333089610857565b610628565b61054a86600260009054906101000a90046001600160a01b03166001600160a01b031663ad5c46486040518163ffffffff1660e01b815260040160206040518083038186803b15801561051257600080fd5b505afa158015610526573d6000803e3d6000fd5b505050506040513d601f19601f8201168201806040525081019061011c9190610c32565b9050803410156105985760405162461bcd60e51b8152602060048201526014602482015273496e73756666696369656e7420616d6f756e742160601b60448201526064015b60405180910390fd5b60025460405163fb3bdb4160e01b81526001600160a01b039091169063fb3bdb419083906105d0908a90879030904290600401610eb1565b6000604051808303818588803b1580156105e957600080fd5b505af11580156105fd573d6000803e3d6000fd5b50505050506040513d6000823e601f3d908101601f191682016040526106269190810190610cf4565b505b7f25d004d24396eac597631995b464f126514f13455dacaffff16cfb662f0a4cbb868633868860405161065f959493929190610ee6565b60405180910390a150505050505050565b6106786107ad565b600280546001600160a01b038381166001600160a01b031983168117909355604080519190921680825260208201939093527fc39066a0834df96b3282322903ba6662d4c35a464fbfb1cb2f5aa97226a97db49101610248565b6106da6107ad565b600380546001600160a01b038381166001600160a01b031983168117909355604080519190921680825260208201939093527fbbc43c225c49cd825b755826abb6ef4940c342bc15f8d7fd9d0fb4e2b363ba539101610248565b61073c6107ad565b6001600160a01b0381166107a15760405162461bcd60e51b815260206004820152602660248201527f4f776e61626c653a206e6577206f776e657220697320746865207a65726f206160448201526564647265737360d01b606482015260840161058f565b6107aa81610807565b50565b6000546001600160a01b031633146102665760405162461bcd60e51b815260206004820181905260248201527f4f776e61626c653a2063616c6c6572206973206e6f7420746865206f776e6572604482015260640161058f565b600080546001600160a01b038381166001600160a01b0319831681178455604051919092169283917f8be0079c531659141344cd1fd0a4f28419497f9722a3daafe3b4186f6b6457e09190a35050565b604080516001600160a01b0385811660248301528481166044830152606480830185905283518084039091018152608490920183526020820180516001600160e01b03166323b872dd60e01b17905291516000928392908816916108bb9190610e7c565b6000604051808303816000865af19150503d80600081146108f8576040519150601f19603f3d011682016040523d82523d6000602084013e6108fd565b606091505b50915091508180156109275750805115806109275750808060200190518101906109279190610da1565b61098d5760405162461bcd60e51b815260206004820152603160248201527f5472616e7366657248656c7065723a3a7472616e7366657246726f6d3a207472604482015270185b9cd9995c919c9bdb4819985a5b1959607a1b606482015260840161058f565b505050505050565b60606109ca826000815181106109ad576109ad61104c565b60209081029190910101516002546001600160a01b031686610a6f565b6002546001600160a01b0316638803dbee8486856109f06000546001600160a01b031690565b426040518663ffffffff1660e01b8152600401610a11959493929190610f40565b600060405180830381600087803b158015610a2b57600080fd5b505af1158015610a3f573d6000803e3d6000fd5b505050506040513d6000823e601f3d908101601f19168201604052610a679190810190610cf4565b949350505050565b604080516001600160a01b038481166024830152604480830185905283518084039091018152606490920183526020820180516001600160e01b031663095ea7b360e01b1790529151600092839290871691610acb9190610e7c565b6000604051808303816000865af19150503d8060008114610b08576040519150601f19603f3d011682016040523d82523d6000602084013e610b0d565b606091505b5091509150818015610b37575080511580610b37575080806020019051810190610b379190610da1565b610b975760405162461bcd60e51b815260206004820152602b60248201527f5472616e7366657248656c7065723a3a73616665417070726f76653a2061707060448201526a1c9bdd994819985a5b195960aa1b606482015260840161058f565b5050505050565b600082601f830112610baf57600080fd5b813567ffffffffffffffff811115610bc957610bc9611062565b610bdc601f8201601f1916602001610f7c565b818152846020838601011115610bf157600080fd5b816020850160208301376000918101602001919091529392505050565b600060208284031215610c2057600080fd5b8135610c2b81611078565b9392505050565b600060208284031215610c4457600080fd5b8151610c2b81611078565b600080600080600060a08688031215610c6757600080fd5b8535610c7281611078565b945060208601359350604086013567ffffffffffffffff80821115610c9657600080fd5b610ca289838a01610b9e565b94506060880135915080821115610cb857600080fd5b610cc489838a01610b9e565b93506080880135915080821115610cda57600080fd5b50610ce788828901610b9e565b9150509295509295909350565b60006020808385031215610d0757600080fd5b825167ffffffffffffffff80821115610d1f57600080fd5b818501915085601f830112610d3357600080fd5b815181811115610d4557610d45611062565b8060051b9150610d56848301610f7c565b8181528481019084860184860187018a1015610d7157600080fd5b600095505b83861015610d94578051835260019590950194918601918601610d76565b5098975050505050505050565b600060208284031215610db357600080fd5b81518015158114610c2b57600080fd5b600060208284031215610dd557600080fd5b5035919050565b60008060408385031215610def57600080fd5b823591506020830135610e0181611078565b809150509250929050565b600081518084526020808501945080840160005b83811015610e455781516001600160a01b031687529582019590820190600101610e20565b509495945050505050565b60008151808452610e68816020860160208601611006565b601f01601f19169290920160200192915050565b60008251610e8e818460208701611006565b9190910192915050565b828152604060208201526000610a676040830184610e0c565b848152608060208201526000610eca6080830186610e0c565b6001600160a01b03949094166040830152506060015292915050565b85815260a060208201526000610eff60a0830187610e50565b6001600160a01b03861660408401528281036060840152610f208186610e50565b90508281036080840152610f348185610e50565b98975050505050505050565b85815284602082015260a060408201526000610f5f60a0830186610e0c565b6001600160a01b0394909416606083015250608001529392505050565b604051601f8201601f1916810167ffffffffffffffff81118282101715610fa557610fa5611062565b604052919050565b60008219821115610fc057610fc0611036565b500190565b600082610fe257634e487b7160e01b600052601260045260246000fd5b500490565b600081600019048311821515161561100157611001611036565b500290565b60005b83811015611021578181015183820152602001611009565b83811115611030576000848401525b50505050565b634e487b7160e01b600052601160045260246000fd5b634e487b7160e01b600052603260045260246000fd5b634e487b7160e01b600052604160045260246000fd5b6001600160a01b03811681146107aa57600080fdfea2646970667358221220d3cdbb19df15a0d569ac3ab0da23b1b91ed58b52a9378ca9d22b86da424a1ff664736f6c63430008060033",
  "linkReferences": {},
  "deployedLinkReferences": {}
}